{
  "contractName": "MOPower",
  "abi": [
    {
      "inputs": [],
      "payable": false,
      "stateMutability": "nonpayable",
      "type": "constructor"
    },
    {
      "anonymous": false,
      "inputs": [
        {
          "indexed": false,
          "internalType": "uint256",
          "name": "_consumerId",
          "type": "uint256"
        },
        {
          "indexed": false,
          "internalType": "string",
          "name": "_message",
          "type": "string"
        }
      ],
      "name": "consumerSaved",
      "type": "event"
    },
    {
      "anonymous": false,
      "inputs": [
        {
          "indexed": false,
          "internalType": "uint256",
          "name": "_meterId",
          "type": "uint256"
        },
        {
          "indexed": false,
          "internalType": "uint256",
          "name": "_usedUnits",
          "type": "uint256"
        },
        {
          "indexed": false,
          "internalType": "string",
          "name": "_message",
          "type": "string"
        }
      ],
      "name": "consumptionSaved",
      "type": "event"
    },
    {
      "anonymous": false,
      "inputs": [
        {
          "indexed": false,
          "internalType": "string",
          "name": "_message",
          "type": "string"
        }
      ],
      "name": "meterCountUpdated",
      "type": "event"
    },
    {
      "anonymous": false,
      "inputs": [
        {
          "indexed": false,
          "internalType": "uint256",
          "name": "_meterId",
          "type": "uint256"
        },
        {
          "indexed": false,
          "internalType": "uint256",
          "name": "_consumerId",
          "type": "uint256"
        },
        {
          "indexed": false,
          "internalType": "string",
          "name": "_message",
          "type": "string"
        }
      ],
      "name": "meterSaved",
      "type": "event"
    },
    {
      "anonymous": false,
      "inputs": [
        {
          "components": [
            {
              "internalType": "uint256",
              "name": "id",
              "type": "uint256"
            },
            {
              "internalType": "uint96",
              "name": "meterId",
              "type": "uint96"
            },
            {
              "internalType": "string",
              "name": "token",
              "type": "string"
            },
            {
              "internalType": "uint64",
              "name": "consumerId",
              "type": "uint64"
            },
            {
              "internalType": "uint64",
              "name": "producerId",
              "type": "uint64"
            },
            {
              "internalType": "uint64",
              "name": "unitsBought",
              "type": "uint64"
            },
            {
              "internalType": "uint256",
              "name": "price",
              "type": "uint256"
            },
            {
              "internalType": "uint256",
              "name": "transactionTimestamp",
              "type": "uint256"
            }
          ],
          "indexed": false,
          "internalType": "struct MOPower.Transaction[]",
          "name": "_transactions",
          "type": "tuple[]"
        },
        {
          "indexed": false,
          "internalType": "string",
          "name": "_message",
          "type": "string"
        }
      ],
      "name": "meterTrasactionsFetched",
      "type": "event"
    },
    {
      "anonymous": false,
      "inputs": [
        {
          "indexed": false,
          "internalType": "uint256",
          "name": "_producerId",
          "type": "uint256"
        },
        {
          "indexed": false,
          "internalType": "string",
          "name": "_message",
          "type": "string"
        }
      ],
      "name": "producerSaved",
      "type": "event"
    },
    {
      "anonymous": false,
      "inputs": [
        {
          "indexed": false,
          "internalType": "string",
          "name": "_token",
          "type": "string"
        },
        {
          "indexed": false,
          "internalType": "string",
          "name": "_message",
          "type": "string"
        }
      ],
      "name": "transactionSaved",
      "type": "event"
    },
    {
      "anonymous": false,
      "inputs": [
        {
          "components": [
            {
              "internalType": "uint256",
              "name": "id",
              "type": "uint256"
            },
            {
              "internalType": "uint96",
              "name": "meterId",
              "type": "uint96"
            },
            {
              "internalType": "string",
              "name": "token",
              "type": "string"
            },
            {
              "internalType": "uint64",
              "name": "consumerId",
              "type": "uint64"
            },
            {
              "internalType": "uint64",
              "name": "producerId",
              "type": "uint64"
            },
            {
              "internalType": "uint64",
              "name": "unitsBought",
              "type": "uint64"
            },
            {
              "internalType": "uint256",
              "name": "price",
              "type": "uint256"
            },
            {
              "internalType": "uint256",
              "name": "transactionTimestamp",
              "type": "uint256"
            }
          ],
          "indexed": false,
          "internalType": "struct MOPower.Transaction",
          "name": "_transaction",
          "type": "tuple"
        },
        {
          "indexed": false,
          "internalType": "string",
          "name": "_message",
          "type": "string"
        }
      ],
      "name": "trasactionFetched",
      "type": "event"
    },
    {
      "constant": false,
      "inputs": [
        {
          "components": [
            {
              "internalType": "uint64",
              "name": "id",
              "type": "uint64"
            },
            {
              "internalType": "uint64",
              "name": "unitBalance",
              "type": "uint64"
            },
            {
              "internalType": "uint64",
              "name": "consumerId",
              "type": "uint64"
            }
          ],
          "internalType": "struct MOPower.Meter",
          "name": "_meter",
          "type": "tuple"
        }
      ],
      "name": "addMeter",
      "outputs": [],
      "payable": false,
      "stateMutability": "nonpayable",
      "type": "function"
    },
    {
      "constant": false,
      "inputs": [
        {
          "components": [
            {
              "internalType": "uint64",
              "name": "id",
              "type": "uint64"
            },
            {
              "internalType": "uint8",
              "name": "meterCount",
              "type": "uint8"
            }
          ],
          "internalType": "struct MOPower.Consumer",
          "name": "_consumer",
          "type": "tuple"
        }
      ],
      "name": "addConsumer",
      "outputs": [],
      "payable": false,
      "stateMutability": "nonpayable",
      "type": "function"
    },
    {
      "constant": false,
      "inputs": [
        {
          "components": [
            {
              "internalType": "uint64",
              "name": "id",
              "type": "uint64"
            },
            {
              "internalType": "uint64",
              "name": "currentPrice",
              "type": "uint64"
            }
          ],
          "internalType": "struct MOPower.Producer",
          "name": "_producer",
          "type": "tuple"
        }
      ],
      "name": "addProducer",
      "outputs": [],
      "payable": false,
      "stateMutability": "nonpayable",
      "type": "function"
    },
    {
      "constant": false,
      "inputs": [
        {
          "components": [
            {
              "internalType": "uint256",
              "name": "id",
              "type": "uint256"
            },
            {
              "internalType": "uint96",
              "name": "meterId",
              "type": "uint96"
            },
            {
              "internalType": "string",
              "name": "token",
              "type": "string"
            },
            {
              "internalType": "uint64",
              "name": "consumerId",
              "type": "uint64"
            },
            {
              "internalType": "uint64",
              "name": "producerId",
              "type": "uint64"
            },
            {
              "internalType": "uint64",
              "name": "unitsBought",
              "type": "uint64"
            },
            {
              "internalType": "uint256",
              "name": "price",
              "type": "uint256"
            },
            {
              "internalType": "uint256",
              "name": "transactionTimestamp",
              "type": "uint256"
            }
          ],
          "internalType": "struct MOPower.Transaction",
          "name": "_transaction",
          "type": "tuple"
        }
      ],
      "name": "addTransaction",
      "outputs": [],
      "payable": false,
      "stateMutability": "nonpayable",
      "type": "function"
    },
    {
      "constant": false,
      "inputs": [
        {
          "components": [
            {
              "internalType": "uint256",
              "name": "id",
              "type": "uint256"
            },
            {
              "internalType": "uint256",
              "name": "meterId",
              "type": "uint256"
            },
            {
              "internalType": "uint256",
              "name": "usedUnits",
              "type": "uint256"
            }
          ],
          "internalType": "struct MOPower.EnergyConsumption",
          "name": "_consumption",
          "type": "tuple"
        }
      ],
      "name": "addConsumption",
      "outputs": [],
      "payable": false,
      "stateMutability": "nonpayable",
      "type": "function"
    },
    {
      "constant": false,
      "inputs": [
        {
          "internalType": "uint256",
          "name": "_meterId",
          "type": "uint256"
        }
      ],
      "name": "getMeterTransactions",
      "outputs": [
        {
          "components": [
            {
              "internalType": "uint256",
              "name": "id",
              "type": "uint256"
            },
            {
              "internalType": "uint96",
              "name": "meterId",
              "type": "uint96"
            },
            {
              "internalType": "string",
              "name": "token",
              "type": "string"
            },
            {
              "internalType": "uint64",
              "name": "consumerId",
              "type": "uint64"
            },
            {
              "internalType": "uint64",
              "name": "producerId",
              "type": "uint64"
            },
            {
              "internalType": "uint64",
              "name": "unitsBought",
              "type": "uint64"
            },
            {
              "internalType": "uint256",
              "name": "price",
              "type": "uint256"
            },
            {
              "internalType": "uint256",
              "name": "transactionTimestamp",
              "type": "uint256"
            }
          ],
          "internalType": "struct MOPower.Transaction[]",
          "name": "_meterTransactions",
          "type": "tuple[]"
        }
      ],
      "payable": false,
      "stateMutability": "nonpayable",
      "type": "function"
    },
    {
      "constant": false,
      "inputs": [
        {
          "internalType": "uint256",
          "name": "_transactionId",
          "type": "uint256"
        },
        {
          "internalType": "uint256",
          "name": "_meterId",
          "type": "uint256"
        }
      ],
      "name": "getTransaction",
      "outputs": [
        {
          "components": [
            {
              "internalType": "uint256",
              "name": "id",
              "type": "uint256"
            },
            {
              "internalType": "uint96",
              "name": "meterId",
              "type": "uint96"
            },
            {
              "internalType": "string",
              "name": "token",
              "type": "string"
            },
            {
              "internalType": "uint64",
              "name": "consumerId",
              "type": "uint64"
            },
            {
              "internalType": "uint64",
              "name": "producerId",
              "type": "uint64"
            },
            {
              "internalType": "uint64",
              "name": "unitsBought",
              "type": "uint64"
            },
            {
              "internalType": "uint256",
              "name": "price",
              "type": "uint256"
            },
            {
              "internalType": "uint256",
              "name": "transactionTimestamp",
              "type": "uint256"
            }
          ],
          "internalType": "struct MOPower.Transaction",
          "name": "_transaction",
          "type": "tuple"
        }
      ],
      "payable": false,
      "stateMutability": "nonpayable",
      "type": "function"
    }
  ],
  "bytecode": "0x608060405234801561001057600080fd5b50336000806101000a81548173ffffffffffffffffffffffffffffffffffffffff021916908373ffffffffffffffffffffffffffffffffffffffff160217905550611ef8806100606000396000f3fe608060405234801561001057600080fd5b506004361061007d5760003560e01c80638c2de0431161005b5780638c2de043146100ea5780639c7d437b14610106578063dde119a814610122578063ec0883eb1461013e5761007d565b80631620be3d146100825780637303f6ce1461009e5780638ab517ea146100ce575b600080fd5b61009c6004803603610097919081019061141f565b61016e565b005b6100b860048036036100b39190810190611504565b6102f1565b6040516100c59190611b6d565b60405180910390f35b6100e860048036036100e3919081019061149a565b610405565b005b61010460048036036100ff9190810190611448565b61067f565b005b610120600480360361011b9190810190611471565b61086c565b005b61013c600480360361013791908101906113f6565b610a5b565b005b610158600480360361015391908101906114db565b610c28565b6040516101659190611a5f565b60405180910390f35b6000809054906101000a900473ffffffffffffffffffffffffffffffffffffffff1673ffffffffffffffffffffffffffffffffffffffff163373ffffffffffffffffffffffffffffffffffffffff16146101fd576040517f08c379a00000000000000000000000000000000000000000000000000000000081526004016101f490611aed565b60405180910390fd5b61020a8160200151610ec9565b610249576040517f08c379a000000000000000000000000000000000000000000000000000000000815260040161024090611b0d565b60405180910390fd5b600760008260200151815260200190815260200160002081908060018154018082558091505090600182039060005260206000209060030201600090919290919091506000820151816000015560208201518160010155604082015181600201555050507f8bccd531435fe13cab7823cb90e004f13553a9911256e47ffa72e259f6041e89816020015182604001516040516102e6929190611bc6565b60405180910390a150565b6102f9610fad565b606061030483610c28565b90506000600182510390505b60008110610360578482828151811061032557fe5b60200260200101516000015114156103525781818151811061034357fe5b60200260200101519250610360565b808060019003915050610310565b506060604051806060016040528060268152602001611e906026913990506001836000015110156103c4576040518060400160405280601581526020017f7472616e73616374696f6e206e6f7420666f756e64000000000000000000000081525090505b7ff97edd3b94eae0fd80546c842090c7c48dd429c2584bdc32f116dc960f9a693583826040516103f5929190611b8f565b60405180910390a1505092915050565b6000809054906101000a900473ffffffffffffffffffffffffffffffffffffffff1673ffffffffffffffffffffffffffffffffffffffff163373ffffffffffffffffffffffffffffffffffffffff1614610494576040517f08c379a000000000000000000000000000000000000000000000000000000000815260040161048b90611aed565b60405180910390fd5b6104af81602001516bffffffffffffffffffffffff16610ec9565b6104ee576040517f08c379a00000000000000000000000000000000000000000000000000000000081526004016104e590611b0d565b60405180910390fd5b6006600082602001516bffffffffffffffffffffffff16815260200190815260200160002081908060018154018082558091505090600182039060005260206000209060060201600090919290919091506000820151816000015560208201518160010160006101000a8154816bffffffffffffffffffffffff02191690836bffffffffffffffffffffffff160217905550604082015181600201908051906020019061059c92919061101e565b5060608201518160030160006101000a81548167ffffffffffffffff021916908367ffffffffffffffff16021790555060808201518160030160086101000a81548167ffffffffffffffff021916908367ffffffffffffffff16021790555060a08201518160030160106101000a81548167ffffffffffffffff021916908367ffffffffffffffff16021790555060c0820151816004015560e082015181600501555050507fdd15aef700b6baf1da9dc5871a496002f1cc21489d388cf72db3db4357acabb881604001516040516106749190611ab8565b60405180910390a150565b6000809054906101000a900473ffffffffffffffffffffffffffffffffffffffff1673ffffffffffffffffffffffffffffffffffffffff163373ffffffffffffffffffffffffffffffffffffffff161461070e576040517f08c379a000000000000000000000000000000000000000000000000000000000815260040161070590611aed565b60405180910390fd5b6000816040015167ffffffffffffffff161161075f576040517f08c379a000000000000000000000000000000000000000000000000000000000815260040161075690611b2d565b60405180910390fd5b8060046000836000015167ffffffffffffffff16815260200190815260200160002060008201518160000160006101000a81548167ffffffffffffffff021916908367ffffffffffffffff16021790555060208201518160000160086101000a81548167ffffffffffffffff021916908367ffffffffffffffff16021790555060408201518160000160106101000a81548167ffffffffffffffff021916908367ffffffffffffffff160217905550905050610828816040015167ffffffffffffffff16610f26565b7f1d0afc212a58e086ccd3407802b780f04c6cdd744cb7fadac928a9e02dfe61b581600001518260400151604051610861929190611c5e565b60405180910390a150565b6000809054906101000a900473ffffffffffffffffffffffffffffffffffffffff1673ffffffffffffffffffffffffffffffffffffffff163373ffffffffffffffffffffffffffffffffffffffff16146108fb576040517f08c379a00000000000000000000000000000000000000000000000000000000081526004016108f290611aed565b60405180910390fd5b600060018290806001815401808255809150509060018203906000526020600020016000909192909190915060008201518160000160006101000a81548167ffffffffffffffff021916908367ffffffffffffffff16021790555060208201518160000160086101000a81548167ffffffffffffffff021916908367ffffffffffffffff1602179055505050905061099161109e565b6001808303815481106109a057fe5b906000526020600020016040518060400160405290816000820160009054906101000a900467ffffffffffffffff1667ffffffffffffffff1667ffffffffffffffff1681526020016000820160089054906101000a900467ffffffffffffffff1667ffffffffffffffff1667ffffffffffffffff168152505090507f39d4b792fc6a2817ff425fa2abecdc9d7acf6258513a64396190b68f405ae3b38160000151604051610a4e9190611c30565b60405180910390a1505050565b6000809054906101000a900473ffffffffffffffffffffffffffffffffffffffff1673ffffffffffffffffffffffffffffffffffffffff163373ffffffffffffffffffffffffffffffffffffffff1614610aea576040517f08c379a0000000000000000000000000000000000000000000000000000000008152600401610ae190611aed565b60405180910390fd5b600060028290806001815401808255809150509060018203906000526020600020016000909192909190915060008201518160000160006101000a81548167ffffffffffffffff021916908367ffffffffffffffff16021790555060208201518160000160086101000a81548160ff021916908360ff16021790555050509050610b726110cc565b60026001830381548110610b8257fe5b906000526020600020016040518060400160405290816000820160009054906101000a900467ffffffffffffffff1667ffffffffffffffff1667ffffffffffffffff1681526020016000820160089054906101000a900460ff1660ff1660ff168152505090507f2f2ff29eac6223072c401d42feb1ae9245e27305a14429a79f069488136863a58160000151604051610c1b9190611c02565b60405180910390a1505050565b606060066000838152602001908152602001600020805480602002602001604051908101604052809291908181526020016000905b82821015610e24578382906000526020600020906006020160405180610100016040529081600082015481526020016001820160009054906101000a90046bffffffffffffffffffffffff166bffffffffffffffffffffffff166bffffffffffffffffffffffff168152602001600282018054600181600116156101000203166002900480601f016020809104026020016040519081016040528092919081815260200182805460018160011615610100020316600290048015610d625780601f10610d3757610100808354040283529160200191610d62565b820191906000526020600020905b815481529060010190602001808311610d4557829003601f168201915b505050505081526020016003820160009054906101000a900467ffffffffffffffff1667ffffffffffffffff1667ffffffffffffffff1681526020016003820160089054906101000a900467ffffffffffffffff1667ffffffffffffffff1667ffffffffffffffff1681526020016003820160109054906101000a900467ffffffffffffffff1667ffffffffffffffff1667ffffffffffffffff1681526020016004820154815260200160058201548152505081526020019060010190610c5d565b5050505090506060604051806060016040528060278152602001611e69602791399050600082511415610e8a576040518060400160405280601681526020017f7472616e73616374696f6e73206e6f7420666f756e640000000000000000000081525090505b7ff5299685d1b78a4588caa1c6373250d877cbea8844a5d7577da74ff660e657d38282604051610ebb929190611a81565b60405180910390a150919050565b60008082118015610f0e575060006004600084815260200190815260200160002060000160009054906101000a900467ffffffffffffffff1667ffffffffffffffff16115b15610f1c5760009050610f21565b600190505b919050565b600060026001830381548110610f3857fe5b90600052602060002001905060018160000160088282829054906101000a900460ff160192506101000a81548160ff021916908360ff1602179055507fb1fa8e515145b4fe796c89558308586521431ea61c3e09200cb942db0694eecf604051610fa190611b4d565b60405180910390a15050565b6040518061010001604052806000815260200160006bffffffffffffffffffffffff16815260200160608152602001600067ffffffffffffffff168152602001600067ffffffffffffffff168152602001600067ffffffffffffffff16815260200160008152602001600081525090565b828054600181600116156101000203166002900490600052602060002090601f016020900481019282601f1061105f57805160ff191683800117855561108d565b8280016001018555821561108d579182015b8281111561108c578251825591602001919060010190611071565b5b50905061109a91906110f3565b5090565b6040518060400160405280600067ffffffffffffffff168152602001600067ffffffffffffffff1681525090565b6040518060400160405280600067ffffffffffffffff168152602001600060ff1681525090565b61111591905b808211156111115760008160009055506001016110f9565b5090565b90565b600082601f83011261112957600080fd5b813561113c61113782611cc7565b611c9a565b9150808252602083016020830185838301111561115857600080fd5b611163838284611db9565b50505092915050565b60006040828403121561117e57600080fd5b6111886040611c9a565b90506000611198848285016113b7565b60008301525060206111ac848285016113cc565b60208301525092915050565b6000606082840312156111ca57600080fd5b6111d46060611c9a565b905060006111e4848285016113a2565b60008301525060206111f8848285016113a2565b602083015250604061120c848285016113a2565b60408301525092915050565b60006060828403121561122a57600080fd5b6112346060611c9a565b90506000611244848285016113b7565b6000830152506020611258848285016113b7565b602083015250604061126c848285016113b7565b60408301525092915050565b60006040828403121561128a57600080fd5b6112946040611c9a565b905060006112a4848285016113b7565b60008301525060206112b8848285016113b7565b60208301525092915050565b600061010082840312156112d757600080fd5b6112e2610100611c9a565b905060006112f2848285016113a2565b6000830152506020611306848285016113e1565b602083015250604082013567ffffffffffffffff81111561132657600080fd5b61133284828501611118565b6040830152506060611346848285016113b7565b606083015250608061135a848285016113b7565b60808301525060a061136e848285016113b7565b60a08301525060c0611382848285016113a2565b60c08301525060e0611396848285016113a2565b60e08301525092915050565b6000813590506113b181611e0c565b92915050565b6000813590506113c681611e23565b92915050565b6000813590506113db81611e3a565b92915050565b6000813590506113f081611e51565b92915050565b60006040828403121561140857600080fd5b60006114168482850161116c565b91505092915050565b60006060828403121561143157600080fd5b600061143f848285016111b8565b91505092915050565b60006060828403121561145a57600080fd5b600061146884828501611218565b91505092915050565b60006040828403121561148357600080fd5b600061149184828501611278565b91505092915050565b6000602082840312156114ac57600080fd5b600082013567ffffffffffffffff8111156114c657600080fd5b6114d2848285016112c4565b91505092915050565b6000602082840312156114ed57600080fd5b60006114fb848285016113a2565b91505092915050565b6000806040838503121561151757600080fd5b6000611525858286016113a2565b9250506020611536858286016113a2565b9150509250929050565b600061154c8383611964565b905092915050565b600061155f82611d03565b6115698185611d31565b93508360208202850161157b85611cf3565b8060005b858110156115b757848403895281516115988582611540565b94506115a383611d24565b925060208a0199505060018101905061157f565b50829750879550505050505092915050565b60006115d482611d19565b6115de8185611d53565b93506115ee818560208601611dc8565b6115f781611dfb565b840191505092915050565b600061160d82611d0e565b6116178185611d42565b9350611627818560208601611dc8565b61163081611dfb565b840191505092915050565b600061164682611d0e565b6116508185611d53565b9350611660818560208601611dc8565b61166981611dfb565b840191505092915050565b6000611681601e83611d53565b91507f7472616e73616374696f6e206164646564207375636365737366756c6c7900006000830152602082019050919050565b60006116c1601383611d53565b91507f43616c6c6572206973206e6f74206f776e6572000000000000000000000000006000830152602082019050919050565b6000611701601e83611d53565b91507f636f6e73756d7074696f6e207361766564207375636365737366756c6c7900006000830152602082019050919050565b6000611741601883611d53565b91507f6d65746572206164646564207375636365737366756c6c7900000000000000006000830152602082019050919050565b6000611781601483611d53565b91507f6d6574657220646f6573206e6f742065786973740000000000000000000000006000830152602082019050919050565b60006117c1601b83611d53565b91507f636f6e73756d6572206164646564207375636365737366756c6c7900000000006000830152602082019050919050565b6000611801601e83611d53565b91507f6e6f206578697374696e6720637573746f6d657220666f72206d6574657200006000830152602082019050919050565b6000611841601b83611d53565b91507f70726f6475636572206164646564207375636365737366756c6c7900000000006000830152602082019050919050565b6000611881601c83611d53565b91507f636f6e73756d6572206d6574657220636f756e742075706461746564000000006000830152602082019050919050565b6000610100830160008301516118cd6000860182611a14565b5060208301516118e06020860182611a50565b50604083015184820360408601526118f88282611602565b915050606083015161190d6060860182611a41565b5060808301516119206080860182611a41565b5060a083015161193360a0860182611a41565b5060c083015161194660c0860182611a14565b5060e083015161195960e0860182611a14565b508091505092915050565b60006101008301600083015161197d6000860182611a14565b5060208301516119906020860182611a50565b50604083015184820360408601526119a88282611602565b91505060608301516119bd6060860182611a41565b5060808301516119d06080860182611a41565b5060a08301516119e360a0860182611a41565b5060c08301516119f660c0860182611a14565b5060e0830151611a0960e0860182611a14565b508091505092915050565b611a1d81611d64565b82525050565b611a2c81611d64565b82525050565b611a3b81611da7565b82525050565b611a4a81611d6e565b82525050565b611a5981611d8f565b82525050565b60006020820190508181036000830152611a798184611554565b905092915050565b60006040820190508181036000830152611a9b8185611554565b90508181036020830152611aaf81846115c9565b90509392505050565b60006040820190508181036000830152611ad2818461163b565b90508181036020830152611ae581611674565b905092915050565b60006020820190508181036000830152611b06816116b4565b9050919050565b60006020820190508181036000830152611b2681611774565b9050919050565b60006020820190508181036000830152611b46816117f4565b9050919050565b60006020820190508181036000830152611b6681611874565b9050919050565b60006020820190508181036000830152611b8781846118b4565b905092915050565b60006040820190508181036000830152611ba981856118b4565b90508181036020830152611bbd81846115c9565b90509392505050565b6000606082019050611bdb6000830185611a23565b611be86020830184611a23565b8181036040830152611bf9816116f4565b90509392505050565b6000604082019050611c176000830184611a32565b8181036020830152611c28816117b4565b905092915050565b6000604082019050611c456000830184611a32565b8181036020830152611c5681611834565b905092915050565b6000606082019050611c736000830185611a32565b611c806020830184611a32565b8181036040830152611c9181611734565b90509392505050565b6000604051905081810181811067ffffffffffffffff82111715611cbd57600080fd5b8060405250919050565b600067ffffffffffffffff821115611cde57600080fd5b601f19601f8301169050602081019050919050565b6000819050602082019050919050565b600081519050919050565b600081519050919050565b600081519050919050565b6000602082019050919050565b600082825260208201905092915050565b600082825260208201905092915050565b600082825260208201905092915050565b6000819050919050565b600067ffffffffffffffff82169050919050565b600060ff82169050919050565b60006bffffffffffffffffffffffff82169050919050565b6000611db282611d6e565b9050919050565b82818337600083830152505050565b60005b83811015611de6578082015181840152602081019050611dcb565b83811115611df5576000848401525b50505050565b6000601f19601f8301169050919050565b611e1581611d64565b8114611e2057600080fd5b50565b611e2c81611d6e565b8114611e3757600080fd5b50565b611e4381611d82565b8114611e4e57600080fd5b50565b611e5a81611d8f565b8114611e6557600080fd5b5056fe6d65746572207472616e73616374696f6e732066657463686564207375636365737366756c6c796d65746572207472616e73616374696f6e2066657463686564207375636365737366756c6c79a365627a7a723158208bbd51534f5162b88a4c5e19c0ca94fe59246ef9a63e71bab19bdf2db0262f746c6578706572696d656e74616cf564736f6c63430005100040",
  "source": "pragma solidity >=0.5.10 <0.6.0;\npragma experimental ABIEncoderV2;\n\n/** \n * @title MOPower\n * @dev Implements meter transactions and consumption on immutable ledger\n */\ncontract MOPower {\n    \n    address private owner;\n    \n    /** \n     * @dev Check if caller is owner\n     */\n    modifier isOwner() {\n        // If the first argument of 'require' evaluates to 'false', execution terminates and all\n        // changes to the state and to Ether balances are reverted.\n        // This used to consume all gas in old EVM versions, but not anymore.\n        // It is often a good idea to use 'require' to check if functions are called correctly.\n        // As a second argument, you can also provide an explanation about what went wrong.\n        require(msg.sender == owner, \"Caller is not owner\");\n        _;\n    }\n    \n    /** \n     * @dev Initialize contract and set owner as sender\n     */\n    constructor () public {\n        owner = msg.sender;\n    }\n    \n    Producer[] producers;\n    Consumer[] consumers;\n    EnergyConsumption[] energyUsages;\n    \n    // list of all meters mapped by their unique id\n    mapping(uint => Meter) private meters_map;\n    // list of all transactions mapped by their reference\n    mapping(uint => Transaction) private transactions_map;\n    // list of all transactions done on a meter\n    mapping(uint => Transaction[]) private meterTransactions_map;\n    // list of all energy consumed by a meter\n    mapping(uint => EnergyConsumption[]) private meterConsumptions_map;\n    \n    event meterSaved(uint _meterId, uint _consumerId, string _message);\n    event consumerSaved(uint _consumerId, string _message);\n    event producerSaved(uint _producerId, string _message);\n    event transactionSaved(string _token, string _message);\n    event consumptionSaved(uint _meterId, uint _usedUnits, string _message);\n    \n    event meterTrasactionsFetched(Transaction[] _transactions, string _message);\n    event trasactionFetched(Transaction _transaction, string _message);\n    \n    event meterCountUpdated(string _message);\n\n    \n    // sells energy tokens for meter\n    struct Producer {\n        uint64 id;\n        uint64 currentPrice; //in kobo\n    }\n    \n    // buys energy token for meter\n    struct Consumer {\n        uint64 id;\n        uint8 meterCount;\n    }\n    \n    // smart meters owned by consumers\n    struct Meter {\n        uint64 id;\n        uint64 unitBalance;\n        uint64 consumerId;\n    }\n    \n    // meter token transaction\n    struct Transaction {\n        uint id;\n        uint96 meterId;\n        string token;\n        uint64 consumerId;\n        uint64 producerId;\n        uint64 unitsBought;\n        uint256 price; // (current) price in kobo when unit was purchase\n        uint transactionTimestamp;\n    }\n    \n    // smart meter energy consumption\n    struct EnergyConsumption {\n        uint id;\n        uint meterId;\n        uint usedUnits;\n    }\n    \n    /** \n     * @dev Save new meter on chain\n     * @param _meter The details of the new meter\n     */\n     //@emit (meterId, consumerId, \"meter added successfully\")\n    function addMeter (Meter memory _meter) public isOwner{\n        require(_meter.consumerId > 0, \"no existing customer for meter\");\n        meters_map[_meter.id] = _meter;\n        \n        // increase meters owned by consumer\n        updateConsumerMeterCount(_meter.consumerId);\n        \n        emit meterSaved(_meter.id, _meter.consumerId, \"meter added successfully\");\n    }\n    \n    /** \n     * @dev Save new consumer on chain\n     * @param _consumer The details of the new consumer\n     */\n     //@emit (consumerId, \"consumer added successfully\")\n    function addConsumer (Consumer memory _consumer) public isOwner {\n        uint _consumerId = consumers.push(_consumer);\n        Consumer memory consumer = consumers[_consumerId - 1];\n        \n        emit consumerSaved(consumer.id, \"consumer added successfully\");\n    }\n    \n    /** \n     * @dev Save new energy producer on chain\n     * @param _producer The details of the new producer\n     */\n     //@emit (producerId, \"producer added successfully\")\n    function addProducer (Producer memory _producer) public isOwner {\n        uint _producerId = producers.push(_producer);\n        Producer memory producer = producers[_producerId - 1];\n        \n        emit producerSaved(producer.id, \"producer added successfully\");\n    }\n    \n    /** \n     * @dev save transaction of token loaded to smart meter. This is saved to the meter's transaction history\n     * @param _transaction The details of the new transaction, including the meter id\n     */\n     //@emit (used transaction token, \"transaction added successfully\")\n    function addTransaction(Transaction memory _transaction) public isOwner {\n        \n        require(meterExists(_transaction.meterId), \"meter does not exist\");\n        meterTransactions_map[_transaction.meterId].push(_transaction);\n        \n        emit transactionSaved(_transaction.token, \"transaction added successfully\");\n    }\n    \n    /** \n     * @dev save new meter energy consumption\n     * @param _consumption The details of the new inbound energy consumption of a smart meter\n     */\n    //@emit (meterId, unitsConsumed, \"consumption saved successfully\")\n    function addConsumption(EnergyConsumption memory _consumption) public isOwner {\n        require(meterExists(_consumption.meterId), \"meter does not exist\");\n        meterConsumptions_map[_consumption.meterId].push(_consumption);\n        \n        emit consumptionSaved(_consumption.meterId, _consumption.usedUnits, \"consumption saved successfully\");\n    }\n    \n    /** \n     * @dev increase consumer meters count by one when they acquire new smart meter\n     * @param _consumerId The id of the consumer who just acquired a new smart meter\n     */\n     //@emit (\"consumer meter count updated\")\n    function updateConsumerMeterCount (uint _consumerId) private {\n        Consumer storage consumer = consumers[_consumerId - 1];\n        consumer.meterCount += 1;\n        \n        emit meterCountUpdated(\"consumer meter count updated\");\n    }\n    \n    /** \n     * @dev Checks if meter exists on blockchain\n     * @param _meterId The id of the meter\n     */\n    function meterExists(uint _meterId) private view returns(bool){\n        if(_meterId > 0 && meters_map[_meterId].id > 0){\n            return false;\n        }\n        return true;\n    }\n    \n    /** \n     * @dev fetch all the token transactions made for a particular meter\n     * @param _meterId The id of the meter whose transaction history is required\n     * @return _meterTransations An array of transactions mapped by the meterId\n     */\n    function getMeterTransactions(uint _meterId) public returns (Transaction[] memory _meterTransactions){\n        _meterTransactions = meterTransactions_map[_meterId];\n        \n        string memory msg = \"meter transactions fetched successfully\";\n        if(_meterTransactions.length == 0)\n            msg = \"transactions not found\";\n        \n        emit meterTrasactionsFetched(_meterTransactions, msg);\n    }\n    \n     /** \n     * @dev fetch details of single meter token Transaction\n     * @param _transactionId The id of the transaction to be fetched\n     * @param _meterId The id of the meter that owns transaction\n     * @return _transaction Transaction details\n     */\n    function getTransaction(uint _transactionId, uint _meterId) public returns (Transaction memory _transaction){\n        Transaction[] memory _meterTransactions = getMeterTransactions(_meterId);\n        \n        // transaction search is more likely to be for recent transactions\n        for(uint i=_meterTransactions.length - 1; i >= 0; i--){\n            if(_meterTransactions[i].id == _transactionId){\n                _transaction = _meterTransactions[i];\n                break;\n            }\n        }\n        string memory msg = \"meter transaction fetched successfully\";\n        \n        if(_transaction.id<1)\n            msg = \"transaction not found\";\n        \n        emit trasactionFetched(_transaction, msg);\n    }\n}",
  "sourcePath": "/home/simplemart/Desktop/team-5/contracts/MOPower.sol",
  "compiler": {
    "name": "solc",
    "version": "0.5.16+commit.9c3226ce.Emscripten.clang"
  },
  "schemaVersion": "3.3.0",
  "updatedAt": "2020-10-25T10:21:47.870Z",
  "networkType": "ethereum",
  "devdoc": {
    "details": "Implements meter transactions and consumption on immutable ledger",
    "methods": {
      "addConsumer((uint64,uint8))": {
        "details": "Save new consumer on chain",
        "params": {
          "_consumer": "The details of the new consumer"
        }
      },
      "addConsumption((uint256,uint256,uint256))": {
        "details": "save new meter energy consumption",
        "params": {
          "_consumption": "The details of the new inbound energy consumption of a smart meter"
        }
      },
      "addMeter((uint64,uint64,uint64))": {
        "details": "Save new meter on chain",
        "params": {
          "_meter": "The details of the new meter"
        }
      },
      "addProducer((uint64,uint64))": {
        "details": "Save new energy producer on chain",
        "params": {
          "_producer": "The details of the new producer"
        }
      },
      "addTransaction((uint256,uint96,string,uint64,uint64,uint64,uint256,uint256))": {
        "details": "save transaction of token loaded to smart meter. This is saved to the meter's transaction history",
        "params": {
          "_transaction": "The details of the new transaction, including the meter id"
        }
      },
      "constructor": {
        "details": "Initialize contract and set owner as sender"
      },
      "getMeterTransactions(uint256)": {
        "details": "fetch all the token transactions made for a particular meter",
        "params": {
          "_meterId": "The id of the meter whose transaction history is required"
        },
        "return": "_meterTransations An array of transactions mapped by the meterId"
      },
      "getTransaction(uint256,uint256)": {
        "details": "fetch details of single meter token Transaction",
        "params": {
          "_meterId": "The id of the meter that owns transaction",
          "_transactionId": "The id of the transaction to be fetched"
        },
        "return": "_transaction Transaction details"
      }
    },
    "title": "MOPower"
  },
  "userdoc": {
    "methods": {}
  }
}